{
  "contractName": "Election",
  "abi": [
    {
      "constant": true,
      "inputs": [],
      "name": "candidatesCount",
      "outputs": [
        {
          "name": "",
          "type": "uint256"
        }
      ],
      "payable": false,
      "stateMutability": "view",
      "type": "function"
    },
    {
      "constant": true,
      "inputs": [
        {
          "name": "",
          "type": "uint256"
        }
      ],
      "name": "candidates",
      "outputs": [
        {
          "name": "id",
          "type": "uint256"
        },
        {
          "name": "name",
          "type": "string"
        },
        {
          "name": "voteCount",
          "type": "uint256"
        }
      ],
      "payable": false,
      "stateMutability": "view",
      "type": "function"
    },
    {
      "inputs": [],
      "payable": false,
      "stateMutability": "nonpayable",
      "type": "constructor"
    },
    {
      "constant": false,
      "inputs": [
        {
          "name": "_candidateId",
          "type": "uint256"
        }
      ],
      "name": "vote",
      "outputs": [],
      "payable": false,
      "stateMutability": "nonpayable",
      "type": "function"
    }
  ],
  "bytecode": "0x608060405234801561001057600080fd5b5061005e6040805190810160405280600e81526020017f4e6972616e6a616e204d616c79610000000000000000000000000000000000008152506100fd640100000000026401000000009004565b6100ab6040805190810160405280600c81526020017f5072616e6565746820522e4b00000000000000000000000000000000000000008152506100fd640100000000026401000000009004565b6100f86040805190810160405280600f81526020017f5368617368616e6b204b204268617400000000000000000000000000000000008152506100fd640100000000026401000000009004565b61021e565b600160008154809291906001019190505550606060405190810160405280600154815260200182815260200160008152506000806001548152602001908152602001600020600082015181600001556020820151816001019080519060200190610168929190610179565b506040820151816002015590505050565b828054600181600116156101000203166002900490600052602060002090601f016020900481019282601f106101ba57805160ff19168380011785556101e8565b828001600101855582156101e8579182015b828111156101e75782518255916020019190600101906101cc565b5b5090506101f591906101f9565b5090565b61021b91905b808211156102175760008160009055506001016101ff565b5090565b90565b6102a18061022d6000396000f300608060405260043610610057576000357c0100000000000000000000000000000000000000000000000000000000900463ffffffff1680630121b93f1461005c5780632d35a8a2146100895780633477ee2e146100b4575b600080fd5b34801561006857600080fd5b5061008760048036038101908080359060200190929190505050610168565b005b34801561009557600080fd5b5061009e6101ad565b6040518082815260200191505060405180910390f35b3480156100c057600080fd5b506100df600480360381019080803590602001909291905050506101b3565b6040518084815260200180602001838152602001828103825284818151815260200191508051906020019080838360005b8381101561012b578082015181840152602081019050610110565b50505050905090810190601f1680156101585780820380516001836020036101000a031916815260200191505b5094505050505060405180910390f35b60008111801561017a57506001548111155b151561018557600080fd5b6000808281526020019081526020016000206002016000815480929190600101919050555050565b60015481565b6000602052806000526040600020600091509050806000015490806001018054600181600116156101000203166002900480601f0160208091040260200160405190810160405280929190818152602001828054600181600116156101000203166002900480156102655780601f1061023a57610100808354040283529160200191610265565b820191906000526020600020905b81548152906001019060200180831161024857829003601f168201915b50505050509080600201549050835600a165627a7a723058200e717704c68b027789ec0b5b548621e91732db8f92d32c4a66b2ccd8508398bd0029",
  "source": "pragma solidity^0.4.*;\n\ncontract Election\n{\n    struct Candidate\n    {\n        uint id;\n        string name;\n        uint voteCount;\n    }\n    \n    mapping(uint=>Candidate) public candidates;\n    \n    uint public candidatesCount;\n\n    function Election() public\n    {\n        addCandidate(\"Niranjan Malya\");\n        addCandidate(\"Praneeth R.K\");\n        addCandidate(\"Shashank K Bhat\");\n    }\n\n    function addCandidate(string _name) private\n    {\n        candidatesCount++;\n        candidates[candidatesCount] = Candidate(candidatesCount, _name, 0);\n    }\n\n    function vote(uint _candidateId) public\n    {\n        require(_candidateId > 0 && _candidateId <= candidatesCount);\n        candidates[_candidateId].voteCount ++;\n    }\n}",
  "sourcePath": "/home/niranjan/Desktop/Demo-App/contracts/Election.sol",
  "compiler": {
    "name": "solc",
    "version": "0.4.26+commit.4563c3fc.Emscripten.clang"
  },
  "schemaVersion": "2.0.3",
  "updatedAt": "2020-03-01T09:56:17.127Z"
}